:020000040800F2
:10000000E8CB0320B1040008F1040008F104000863
:10001000F1040008F1040008F104000800000000E9
:10002000000000000000000000000000AD03000818
:10003000C5040008000000007F0400088F040008C9
:10004000CB040008CB040008CB040008CB04000854
:10005000CB040008CB040008056200081D620008FC
:10006000296200084D62000859620008CB040008AC
:10007000CB040008CB040008115F0008495F0008AA
:10008000CB040008CB040008155B0008CB04000873
:10009000CB040008CB040008CB040008656200080C
:1000A000CB040008CB040008CB040008CB040008F4
:1000B000CB040008CB040008CB0400081189000819
:1000C00001890008CB040008CB040008F5E2000811
:1000D000CB040008CB040008CB040008CB040008C4
:1000E00011620008CB040008CB040008CB04000810
:1000F000CB040008CB040008CB040008CB040008A4
:1001000000000000DDDE0008CB040008CB0400087E
:100110000000000000000000CB040008CB04000831
:10012000CB040008CB040008CB040008815F000862
:10013000CB040008CB040008CB040008CB04000863
:10014000CB040008CB040008CB04000861D70008EA
:10015000CB040008995F0008CB040008CB0400081A
:10016000CB040008CB0400080000000000000000E1
:10017000000000000000000000000000000000007F
:10018000CB040008CB0400080000000000000000C1
:1001900049E30008CB040008000000000000000054
:1001A000000000000000000000000000000000004F
:1001B000CB0400080000000000000000CB04000891
:1001C000CB04000800F002F800F0DCF814A696E872
:1001D000000CB244B344DA4501D100F0D3F8BAE8D8
:1001E0000F000FA696E83000A5EB040504EB060708
:1001F000AAEB0704A7F101074FEA15154FEA3414DB
:10020000A4F10104AC4201D300F0BCF813F0010FDB
:1002100018BFFB1A43F0010300F001F8DBE71847B1
:1002200064FF060084FF06000A444FF0000C10F83B
:10023000013B13F0070408BF10F8014B1D1108BF64
:1002400010F8015B641E05D010F8016B641E01F804
:10025000016BF9D113F0080F1EBF10F8014BAD1C54
:100260000C1B09D16D1E58BF01F801CBFAD505E072
:1002700014F8016B01F8016B6D1EF9D59142D6D3CC
:10028000704700007047000000230024002500266E
:10029000103A28BF78C1FBD8520728BF30C148BFE9
:1002A0000B6070476E2901F06B83702901F0B584F3
:1002B00066291AF076A565291AF073A567291AF040
:1002C00070A561291AF06FA503681B0A28BF41F0C9
:1002D0008001692901F01883642901F015837529CB
:1002E00001F012836F2901F04384782901F08184A1
:1002F000E92901F0DD83E42901F0DA83F52901F031
:10030000D783EF2901F04084F82901F08084036845
:10031000DB0928BF41F08001632903F09F80732926
:1003200003F0A480E32903F0AF80F32903F0B48045
:10033000002070471FB505F0CBFB9DE8030001F0DE
:1003400093F801F074F80400002000215AF0E0FA5C
:10035000401C6060002000215AF0F0FAE0600020AC
:1003600000215AF001FB206102F088F901F03AF80F
:100370001FBD10B5002004F053F902F0F7F904F0A6
:1003800017FC10BD04F0EFFB114603B43FF04CF92D
:1003900003BCFFF7CFFF47F001F800F0DDFC03B42A
:1003A000FFF7E7FF03BC01F033F800001EF0040F75
:1003B0000CBFEFF30880EFF30980816911F8021C8C
:1003C00000294ED101B590E80F10E047BDE800507C
:1003D000CCF80000324B93E80600914208BF70470A
:1003E0001A6041B91EF0100F2CD12E4B186820F066
:1003F0000100186026E0ACF1200C1EF0100F08BFC1
:10040000ACF1400C81F822E0C1F838C006B40846CF
:1004100054F020FD06BC50B90C464FF0010053F0DB
:10042000DFFC214B5A681A6094F822E0DAE7D1F831
:1004300038C091F822E01EF0100F08BFACEC108A13
:100440008CE8F00F906B92F8221061F0FF0E1EF016
:10045000100F08BFB0EC108AB0E8F00F80F30988E5
:100460007047124A13689942FAD801B552F821C070
:100470000FC8E047BDE80050CCF80000704701B558
:1004800054F08AF8BDE80140EFF3098CA2E701B50A
:1004900054F0BCFDBDE80140EFF3098C9AE7000081
:1004A000441F002034EF00E0441F0020D01A06084B
:1004B0000948804709480047FEE7FEE7FEE7FEE7F8
:1004C000FEE7FEE7FEE7FEE7FEE7FEE70448054934
:1004D000054A064B7047000065FC0008C50100088E
:1004E000E8FF0020E8CB0320E8AB0320E8AB0320C3
:1004F0001EF0040FEFF3088018BFEFF30980714678
:1005000008F018B901BEFEE710B500F090FF001D1D
:1005100010BD00BFFDA305003EF0C4BF70B514467A
:100520000D46064600F07EFF006823462A46314607
:10053000BDE8704001F03AB870B5A0FB0140B4F1DD
:10054000805170F1000024BF002070BD204600F0F3
:1005500050F805001CBF214600F08EFE284670BDF5
:100560000844401E491E884370470821001DF7E7D4
:100570002DE9F04117460E460446FFF7F6FFA0426C
:10058000054633D9002F1CBF06F108003FF00AF8DA
:1005900030467468F4B12168A94217D305F1080206
:1005A00091423CBF6168416007D3626861194A604B
:1005B0002268521B0A6041602560002F1CBF06F1B3
:1005C00008003FF023F8201DBDE8F0812046646854
:1005D000002CE0D12946304600F032FF0028D7D168
:1005E000002F1CBF06F108003FF010F80020BDE806
:1005F000F08110B5044600F015FF01682046BDE803
:1006000010400122B4E770B516460D46041F0028BD
:1006100008BF70BD002E1CBF05F108003EF0C2FFF0
:100620002B465868002818BFA04238BF0346F8D3AD
:100630001968CA18A24218BF5C6003D122681C4620
:100640001144196021680A19824218BF606004D100
:1006500042686260006808442060002E1CBF05F1FB
:1006600008003EF0D3FF70BD10B5044600F0DAFE7E
:1006700001682046BDE810400122C4E753EA020C9D
:1006800000F069802DE9F04B4FF00006002B1FBFF2
:10069000B3FA83F503FA05F424FA05F65E4012BFB7
:1006A0001643B2FA82F502FA05F4C5F120051EBF21
:1006B00022FA05FC44EA0C04203556EA044C4FEAC1
:1006C000144418BF641C4FF000084FF0000990421A
:1006D00071EB030C39D3002919BFB1FA81F701FA84
:1006E00007F6B0FA80F700FA07F6C7F120071EBF39
:1006F00020FA07FC46EA0C062037B6FBF4FCA7EB11
:100700000507103F07F01F0BCBF120062CFA06F669
:100710000CFA0BFB44BFB3460026202FA4BF5E4655
:100720004FF0000B5BEA060C08BF4FF0010B19EB12
:100730000B0948EB0608ABFB027C06FB02CC0BFB6B
:1007400003CCC01B71EB0C01C1E70B4602464146CE
:100750004846BDE8F08B13B5084318BF4FF0FF3093
:100760000146AFF30080BDE81C40704753EA020C1D
:1007700023D010B54C1084EA530404D54042C1F193
:10078000000138BF491E1B4204D55242C3F1000389
:1007900038BF5B1EFFF772FF14F0804F04D0404259
:1007A000C1F1000138BF491E14F0004F04D052427D
:1007B000C3F1000338BF5B1E10BD13B540424FF0BC
:1007C000000070EB0104B8BF012001F000410028D7
:1007D0001CBF6FF000414FF0FF30AFF300801CBD35
:1007E0000FB4044910B503AA029804F06FFA10BCC4
:1007F0005DF814FB542500200A46014904F066BA4E
:10080000542500200FB4014610B504AA039804F043
:100810005DFA10BC5DF814FB0FB41CB5084B06AABA
:100820007B4469460090059801F0C3F80446002017
:10083000694601F0D1F820461CBC5DF814FB0000AD
:10084000B51100001CB50C46064B7B446946009070
:10085000204601F0AEF804460020694601F0BCF8DD
:1008600020461CBD8B1100000FB41CB50C0007AA5C
:10087000009007D04142A14202D32044401E01E033
:100880004FF0FF30074B7B4469460190069801F01A
:1008900090F80021002C01D0009A11701CBC5DF86A
:1008A00014FB0000591100007CB51D4616460C00D3
:1008B000009007D04142A14202D32044401E01E0F3
:1008C0004FF0FF30064B7B442A4669460190304684
:1008D00001F06FF8002C02D0009A002111707CBD4D
:1008E000191100000FB400B589B00CA96A46009137
:1008F0000B9904F00BFA09B05DF814FB0FB400B5C6
:100900008DB010A9099000910B904FF0FF300A9024
:1009100000200C90064878440690064878446A46C1
:1009200007900F9909A801F00FFC0DB05DF814FBBA
:100930004F1800006718000070B50646FFF7ECFD81
:100940000468054630460A22002101F02DFC2C6087
:1009500070BD00002DE9F041044616460D4647697A
:10096000007B80072ED038463EF0B2FE50BB3EB32F
:10097000012E02D0022E25D104E0204600F066F8B8
:1009800005441DE038463EF07BFEE168002841F05A
:100990001001E16005DA204601F0A6FD0120BDE866
:1009A000F081C9030BD56268E16A914200D8114613
:1009B000A26911442269891A814200DD0846054472
:1009C000002D01DA0220EAE7E16A6068E26881420C
:1009D00006D29103E06203D522F4003141F0100207
:1009E000A6690027AE4213DCE16A814201D90B46B9
:1009F00000E0034603EB060C2369ACEB030CAC45AB
:100A000006DD814201D98C4600E084469C4505D133
:100A1000A760276042F02000A5620DE0AD1BE669EB
:100A2000AE1B8142A66000D90846C01A281A206071
:100A30005819606022F0200003490840E06000205F
:100A400084F84870ABE70000BFCFD7FF10B5014670
:100A5000C268900703D0900607D5886A0AE0FFF7BE
:100A60005BFD01210160881E10BD8B694868184438
:100A70000B69C01A91F848301BB191F84910401A1F
:100A800010BD1103FCD50028FADD401E10BD2DE974
:100A9000F04704464FF0FF380026C568D4E90497B4
:100AA000A80718D0204601F05FFD38463EF0C0FD93
:100AB000002800DA4646280502D54846FFF7D4FD4F
:100AC0004C21204600F0FAFB206D20F0010020654B
:100AD0003046BDE8F0874046FBE770B5044600F1BC
:100AE0004C0528463EF05EFD2046FFF7AFFF04466A
:100AF00028463EF08BFD204670BD000070B50546CF
:100B00000A4E30463EF04EFD05F14C0420463EF0C4
:100B100049FD2846FFF7BBFF054620463EF076FD1F
:100B200030463EF073FD284670BD00000C000020EA
:100B30002DE9F04116460F46054600F14C042046CB
:100B40003EF030FD324639462846FFF703FF0546A2
:100B500020463EF05BFD2846BDE8F08170B50446B6
:100B600000F14C0528463EF01DFD207B00F080047E
:100B700028463EF04BFD204670BD00002DE9F041B7
:100B8000044600F14C0738463EF00CFDE068810752
:100B900012D0800601D5A66A04E0A1696068084405
:100BA0002169461A204601F0DFFC00220546314645
:100BB0002046FFF7CFFE00E0002538463EF026FD38
:100BC0002846BDE8F0812DE9F04118B1BDE8F041BB
:100BD000FFF7D4BF0B4E002530463EF0E3FC0A4C35
:100BE0006F1E07E02046FFF7C9FF00B13D46206DAC
:100BF00020F00104002CF5D130463EF007FD2846D8
:100C0000DFE700000C000020002500202DE9F04760
:100C100016468846070010D006F14C0081463EF08B
:100C2000C1FC3046FFF733FF18F8010B61280DD0E7
:100C3000722805D0772841D105E00020BDE8F08773
:100C40000125002405E00225042402E0082448F2DE
:100C5000020518F8010B2B2806D0622809D018F8D5
:100C6000010C74280AD00BE045F0030544F002049F
:100C7000EFE745F0040544F00104EAE744F010040E
:100C8000384621463EF048FD411C17D00021316115
:100C900071604FF40071F560F1617061200704D557
:100CA000304602220021FFF755FE306D40F0010072
:100CB000306548463EF0AAFC3046BFE70026F8E71C
:100CC0002DE9F04115460E460746214C20463EF0E0
:100CD00069FC2A4631463846FFF798FF054620460C
:100CE0003EF094FC2846BDE8F0812DE9F0410E4627
:100CF0008046174D28463EF055FC164C206DC10726
:100D000004D0410804D020F00104F7E7224612E0A5
:100D10005420FFF76EFC070017D0206D47F001014B
:100D2000084354212065384600F0C8FA07F14C000A
:100D30003EF052FC3A4631464046FFF767FF044614
:100D400028463EF063FC2046CDE70024F8E700008B
:100D50000C0000200025002010B50446AFF30080F1
:100D60002046BDE81040FFF71ABB10B5002001F087
:100D700080FDFFF7FEFABDE81040012000F048BBFF
:100D80000B460146184601F05DBD00000EB5054654
:100D900014460E4613A004F055FB284604F052FBFF
:100DA00016A004F04FFB304604F04CFB15A004F0F5
:100DB00049FB00218DF80B100A210DF10A008DF876
:100DC0000A1008E094FBF1F201FB124294FBF1F4EB
:100DD000303200F8012D002CF4DC04F033FBFFF777
:100DE000C4FF00002A2A2A20617373657274696F38
:100DF0006E206661696C65643A2000002C2066698B
:100E00006C6520002C206C696E652000401ECAB203
:100E100010F8011F8A4202D00029F9D10020704742
:100E200010B5431E13F8014F002CFBD105E011F85B
:100E3000014B002C03F8014B03D0521EF7D20021C6
:100E4000197010BD30B505460B462A4613F8014B04
:100E500012F8010B08B1A042F8D01CB1002802D052
:100E60006D1CF1E7284630BD40EA010310B59B0731
:100E70000FD1042A0DD310C808C9121F9C42F8D004
:100E800020BA19BA884201D9012010BD4FF0FF30B5
:100E900010BD1AB1D30703D0521C07E0002010BDCB
:100EA00010F8013B11F8014B1B1B07D110F8013B57
:100EB00011F8014B1B1B01D1921EF1D1184610BD38
:100EC00040EA0103024630B59B0710D14FF00134D0
:100ED00000E008C208C91D1B9D4315EAC41FF8D0D5
:100EE00013F0FF0102F8011B0DD01B0AF8E711F8FF
:100EF000013B002B02F8013B05D011F8013B002B10
:100F000002F8013BF3D130BD2DE9F0410546904692
:100F10000E460020044600E0641C44450BD2285DC8
:100F200000F082FC0746305D00F07EFC381A02D1EA
:100F3000295D0029F0D1BDE8F0812DE9F0410E4690
:100F40000546002400E0641C285D00F06DFC0746A7
:100F5000305D00F069FC381A02D1295D0029F2D118
:100F6000BDE8F0810022CBB210F8011B994200D1FC
:100F7000421E0029F8D11046704710B5431C02E00C
:100F800010F8011B71B18107FAD14FF0013202C88C
:100F90008C1A8C4314EAC211F9D0C01A0A0603D085
:100FA000C01E10BDC01A10BD0A0401D0801E10BDA5
:100FB0000902FCD0401E10BD40EA010370B59B073A
:100FC0002ED14FF00136042A2AD308C810C99D1B20
:100FD0009D43121F15EAC61517D0D8B2E1B2401AC8
:100FE00050EA056110D198B2A1B2401A50EA054109
:100FF0000AD123F07F4024F07F41401A50EA0521B6
:1010000002D1180EA0EB146070BDA342DBD018BA59
:1010100021BA884201D9012070BD4FF0FF3070BD68
:101020000AB9002070BD10F8013B11F8014B63B103
:10103000A3420AD1521E08D010F8013B11F8014B0F
:101040001BB1A34201D1521EEDD1181B70BD421E2F
:1010500012F8013F002BFBD111F8013B002B02F8E5
:10106000013BF9D17047032A40F2308010F0030CA5
:1010700000F0158011F8013BBCF1020F624498BFEB
:1010800011F801CB00F8013B38BF11F8013BA2F188
:10109000040298BF00F801CB38BF00F8013B11F003
:1010A000030300F06780083AC0F0088051F8043B61
:1010B000083A51F804CBA0E80810F5E7121D5CBF10
:1010C00051F8043B40F8043BAFF30080D20724BF43
:1010D00011F8013B11F801CB48BF11F8012B24BFD7
:1010E00000F8013B00F801CB48BF00F8012B704726
:1010F000431A28BF9A427FF6B6AF10441144032A20
:1011000040F2268010F0030F1EBF11F8013D521E61
:1011100000F8013D10F0030F7FF4F6AF11F0030368
:1011200000F06D80083AC0F00B8051F8043D083A99
:1011300051F804CD40F8043D40F804CDFFF7F3BF6B
:10114000121D5CBF51F8043D40F8043DAFF3008030
:10115000D20724BF11F8013D11F801CD48BF11F8A5
:10116000012C24BF00F8013D00F801CD48BF00F874
:10117000012C704710B5203AC0F00B80B1E8185030
:10118000A0E81850B1E81850A0E81850203ABFF471
:10119000F5AF5FEA027C24BFB1E81850A0E8185010
:1011A00044BF18C918C0BDE810405FEA827C24BF64
:1011B00051F8043B40F8043B08BF7047D20728BFF2
:1011C00031F8023B48BF11F8012B28BF20F8023B41
:1011D00048BF00F8012B7047431A28BF9A427FF698
:1011E000C9AF1044114410F0030F1EBF11F8013DA8
:1011F000521E00F8013D10F0030F7FF4F6AF103AD5
:10120000C0F00A8010B531E9185020E91850103AA2
:10121000BFF4F9AFBDE81040530724BF31E908100F
:1012200020E9081044BF51F8043D40F8043D12F095
:10123000030F08BF7047D20728BF31F8023D48BFEF
:1012400011F8012C28BF20F8023D48BF00F8012CFE
:10125000704701B501F0FF03114643EA032242EA59
:10126000024200F00BF801BD02F0FF0343EA032243
:1012700042EA024200F002B84FF000020429C0F036
:10128000128010F0030C00F01B80CCF1040CBCF1B8
:10129000020F18BF00F8012BA8BF20F8022BA1EB0A
:1012A0000C0100F00DB85FEAC17C24BF00F8012BEF
:1012B00000F8012B48BF00F8012B70474FF00002E7
:1012C00000B5134694469646203922BFA0E80C503C
:1012D000A0E80C50B1F12001BFF4F7AF090728BF17
:1012E000A0E80C5048BF0CC05DF804EB890028BF93
:1012F00040F8042B08BF704748BF20F8022B11F0BC
:10130000804F18BF00F8012B704710B5044610F04D
:10131000030F08BF11F0030F40F015804FF0013E9E
:10132000121FC0F20E8051F8043BA3EB0E0C2CEA06
:10133000030C1CEACE1C08BF40F8043BF0D0A1F11E
:10134000040102F10402521E08DB11F8013B00F80F
:10135000013B002BF7D11146FFF78EFF204610BD51
:1013600030B44FF0013C50F8042B51F8043BCCFA58
:1013700052F4D51A20D1FCB950F8042B51F8043B93
:10138000CCFA52F4D51A17D1B4B950F8042B51F84D
:10139000043BCCFA52F4D51A0ED16CB950F8042B98
:1013A00051F8043BCCFA52F4D51A05D1002CDAD00E
:1013B00030BC4FF00000704729BAB1FA81F111F04A
:1013C0001801D1F120008440F2D1CA40CB4012F084
:1013D000FF0213F0FF0330BCD01A7047704770470C
:1013E0007047000008487CB578440090074878446E
:1013F000009C0546019004E02046016808448047AF
:10140000241DAC42F8D17CBD78F00600E6F0060061
:1014100001491820ABBEFEE72600020000487047D5
:10142000FC25002010B5FFF7F9FF083010BD10B5FE
:10143000FFF7F4FF203010BD7047704770477047CA
:1014400038B504460A4600206946AFF300800028FC
:1014500008BF38BD02460099204601F047FB012035
:1014600038BD012003F021B9F8B5AFF3008005467F
:1014700000200C460C2000BF0646A819A0420DD93A
:10148000324669460020AFF30080070008BF03F032
:101490000CF90098A04218BF0546C419FFF7C2FF17
:1014A00005600746F01D20F007004619284600F0A9
:1014B0000AF8B44208BFF8BDA21B31463868BDE83F
:1014C000F84001F013BB002140F8041B40F8041B56
:1014D0003EF082B80C2070470844401E491E8843E5
:1014E00070470821001DF7E72DE9F04791460C46AB
:1014F0008046FFF797FF0668604234EA000001D19A
:10150000042C02D20520BDE8F087601E40F00707DA
:101510004846FFF7E6FF484505469CBF0620BDE864
:10152000F08706F108003EF03DF874683046002C64
:101530002FD02368211D494207EA0102934224D992
:10154000991A8D4221D84AB1214614440B689B1A3E
:1015500023604B6863600A6041600846226805F1B9
:1015600008018A4205D36119521B0A602560416057
:1015700008466168416006F108003EF047F8241D06
:101580000020C8F80040BDE8F08720466468002CC1
:10159000CFD129463046FFF753FF0028C5D106F1C9
:1015A00008003EF033F80620BDE8F0872DE9FF4F34
:1015B0009A460D464FF00008070083B01CD007F193
:1015C000080002903DF0EEFF7C684FF0FF3B0020EA
:1015D000019007F1130020F00700C01C20F007065F
:1015E000361DBAF1000F5CD033463A46374979448C
:1015F00000940598A84754E0BAF1000F64D005980C
:1016000033A1A84760E01FD1BAF1000F06D02246EF
:10161000606836A1009023680598A8472768082FBE
:1016200003D24FF0010808201DE06468002C3BD075
:10163000A64206D94FF0010823463246059834A148
:10164000A8474FF0000915E03768BAF1000F04D041
:1016500032463B4605983AA1A847042F4FF00109AE
:1016600008D2C84604203B4632463CA1009005986B
:10167000A84719E0780707D04FF001083B463246EB
:10168000082044A10090F2E759EA0B0006D14FF080
:1016900001083346019A05984DA1A8470196CB460B
:1016A0003E440CB1A642AED902983DF0AFFFBAF16C
:1016B000000F02D0059853A1A847B8F1000F03D03E
:1016C000002007B0BDE8F08F0120FAE76AB00500FE
:1016D0006E756C6C20686561702C20646F696E6734
:1016E000206E6F7468696E670A0000006672656537
:1016F00020626C6F636B202025702073697A6520EF
:1017000025336C78206E6578743D25700A000000E2
:101710004865617020696E76616C69643A20667212
:10172000656520626C6F636B202570206C696E6B41
:1017300073746F206561726C6965722025700A0090
:10174000616C6C6F6320626C6F636B20257020731B
:10175000697A652025336C780A000000486561705D
:1017600020696E76616C69643A20626C6F636B20ED
:1017700025702073697A652030782578206D75731F
:1017800074206265206174206C6561737420307808
:1017900025780A004865617020696E76616C69641D
:1017A0003A20626C6F636B2025702073697A652024
:1017B0003078256C78206E6F74206D756C7469704C
:1017C0006C65206F66203078256C780A0000000078
:1017D0004865617020696E76616C69643A2074773F
:1017E0006F20636F6E7365637574697665206672CA
:1017F000656520626C6F636B732025702C25700A01
:101800000A0000002D2D2D2D2D2D2D2068656170D5
:101810002076616C69646174696F6E20636F6D70AE
:101820006C6574650A00000010B50446FEF76CFE96
:101830000068005DC00602D504F1200010BD2046FE
:1018400010BD70B5044685690068C10601D5302613
:1018500000E02026C00707D070BDD4E90121304642
:101860009047206A401C20626D1EF6D570BD70B591
:10187000044685690078C00707D170BDD4E901210D
:1018800020209047206A401C20626D1EF6D570BD56
:1018900009684A0501D540B27047C905FCD500B2B8
:1018A000704709684A0501D5C0B27047C905FCD523
:1018B00080B2704770B50C460546012A05D02878DD
:1018C000800600D5EA69002302E0012305E05B1CE5
:1018D000934202D2E05C0028F9D1A869E618C01A48
:1018E000A861286A184428622846FFF7AAFF04E086
:1018F000D5E9012114F8010B9047B442F8D32846EA
:10190000FFF7B5FF70BD00002DE9F0410646002449
:1019100010687529314616A510D0FFF7B9FF0028C9
:1019200002DA404213A507E031688A0701D512A503
:1019300002E0490704D511A5012401E0FFF7B1FF3A
:1019400000210A2206F1240709E0B0FBF2FCB0FBFB
:10195000F2F302FB1C00303078541846491C002872
:10196000F3D123462A463046BDE8F04101F086B95E
:10197000000000002D0000002B00000020000000EF
:1019800011680268006A530501D508700AE0D305A2
:1019900001D5088006E0130603D5C217C1E900028D
:1019A00000E008600120704701694A1C0261087864
:1019B000704700B58FB0CDE901310021059105498F
:1019C0007944CDE903101146684600F031F90FB0B3
:1019D00000BD0000E5FFFFFF0A6802F8010B0A6086
:1019E0007047D1E900239A4202D2531C0B60107059
:1019F000704700002DE9FF5F15468A460446DFF870
:101A0000AC80F8440027D8E900103E46CDE900102C
:101A100010E03AF816106A4602A802F0D0FD411C08
:101A200007D02178890603D5E269391891420DD88B
:101A30000744761C2078800602D5E069B84205DDAF
:101A4000AE42E6DB3AF816000028E2D1A069C01BDE
:101A5000A0612046FFF7F5FED8E90010CDE900109F
:101A6000002017E03AF818106A4602A802F0A7FD15
:101A7000B0F1FF3F81460BD000250DF1080B05E0CA
:101A8000D4E901211BF8050090476D1C4D45F7D3A3
:101A900008F10100B0428046E4DB206A384420624D
:101AA0002046FFF7E4FEBDE8FF9F00005AAB0500AB
:101AB0002DE9F0418046D21D22F007020025D2E92F
:101AC0000002F52915A614D0011E72F1000106DAF4
:101AD0000023D0EB030063EB020211A608E0D8F864
:101AE00000108B0701D50FA602E0490701D50EA60D
:101AF00001251146002408F1240704E001F018F83C
:101B000030323A55641C50EA0102F7D12B46324676
:101B100021464046BDE8F04101F0B0B800000000A9
:101B20002D0000002B0000002000000030B4002138
:101B300000F1240408E002F00705D208303542EA3B
:101B40004372DB086554491C52EA0305F3D104686B
:101B5000002310A2250708D504F020040C4304D06C
:101B6000C46901230CA2641EC46130BC01F086B8B4
:101B700010B5044621461068FFF793FE0246204642
:101B8000BDE810400023D1E7D21D22F00701D1E9C2
:101B90000023CBE70000000030000000F0B40D4649
:101BA0000188090502D5214C7C4402E01F4C7C448D
:101BB0000E34002100F1240608E002F00F0712099C
:101BC000E75D42EA03721B097754491C52EA030796
:101BD000F3D102780023120704D5702D06D009B185
:101BE000022311342246F0BC01F048B8012310341E
:101BF000F8E770B504460D4621461068FFF751FE20
:101C0000024629462046BDE870400023C6E7D21DA3
:101C100022F00703D3E90023C0E70368126843F00A
:101C2000200303600823C3610023B7E7BCA90500B4
:101C30002DE9F05F894604464FF0000ADFF874B1E1
:101C4000FB44C0F820A02046E1688847002874D0F3
:101C5000252806D0D4E901219047206A401C206243
:101C6000F1E700265F462046E168884720280546C0
:101C700007DB312D05D2781910F8200C08B1064386
:101C8000F1E7B00701D526F00406C4F81CA0002730
:101C9000C4F818A02A2D09D0284658F08CFD38B376
:101CA00004EB8708303DC8F8185019E059F8041BB8
:101CB000204604EB87029161E1688847012F0546C1
:101CC00018D1E069002820DA26F020061DE0D8F8B7
:101CD000180000EB800005EB40003038C8F8180011
:101CE0002046E1688847054658F065FD0028EED19A
:101CF000012F0AD02E2D08D12046E16888477F1C8D
:101D00000546022F46F02006C4DBA069002803DA4E
:101D1000404246F00106A061F00701D026F010060F
:101D20006C2D0BD0682D09D04C2D39D06A2D35D0B3
:101D3000742D35D07A2D33D016E038E0E1682F4687
:101D400020468847B842054609D16C2F26D04FF46B
:101D50008060E168064320468847054604E06C2F12
:101D60001AD04FF4807006430DB3A5F14100192835
:101D700002D8203546F400664A46294620462660A9
:101D80004E46FEF78FFA80B101280BD0F61D26F0E3
:101D9000070000F1080956E74020E4E78020D8E773
:101DA0000020D6E706F104094DE7284652E7206AED
:101DB000BDE8F09F4CA905002DE9FF4F1C46914658
:101DC0004FF0FF3581B000218A468846D4E901678B
:101DD000A16902986D1C8847216A834688470028BC
:101DE000F6D1BBF1FF3F0CD0002F26F4C0661ADD00
:101DF000700615D5BBF12B0F0AD0BBF12D0F0FD1FB
:101E000004E04FF0FF3005B0BDE8F08F46F4806687
:101E1000A16902986D1C88477F1E8346002F02DD52
:101E2000BBF1300F03D0B9F1000F2AD025E0A16932
:101E30006D1C02987F1E46F400768847002F83466B
:101E400005DDBBF1780F06D0BBF1580F03D0B9F117
:101E5000000F10D011E0B9F1000F02D0B9F1100F4E
:101E60000BD1A1696D1C02987F1E26F4007688476D
:101E70008346102000E0082081464FEAE970009078
:101E800017E00A20F8E74346AAFB0928DDF800C05E
:101E90007F1E03FB098046F4007605F101050AFB6D
:101EA0000C0112EB0B0A029841EBEB78A169884711
:101EB0008346002F06DD4946584601F029FB5FEABC
:101EC000000BE0D5E16902988847B00502D46FF0B5
:101ED000010098E7F00718D1700610D5514670053B
:101EE00005D50023D1EB030163EB080200E0424675
:101EF0002068031D23600068C0E9001205E0206827
:101F0000011D21600068C0E900A828467BE72DE993
:101F1000FF5F1D464FF0FF3B91464FF000085F46C4
:101F2000D5E90146A96901987F1C8847296A82463C
:101F300088470028F6D1BAF1FF3F0CD0002E24F4D8
:101F4000C06419DD600614D5BAF12B0F09D0BAF1BF
:101F50002D0F0ED103E0584604B0BDE8F09F44F4C5
:101F60008064A96901987F1C8847761E8246002EEE
:101F700002DDBAF1300F03D0B9F1000F26D032E004
:101F8000A969761E01987F1C44F400748847002ECE
:101F9000824605DDBAF1780F06D0BAF1580F03D0AA
:101FA000B9F1000F10D01EE0B9F1000F02D0B9F165
:101FB000100F18D1A969761E01987F1C24F40074B3
:101FC00088478246102002E0082000E00A2081466F
:101FD00009E0A96908FB0908761E01987F1C44F4F2
:101FE000007488478246002E05DD4946504601F0C0
:101FF0008FFA0028EDDAE96901988847A00502D434
:102000006FF00100A8E7E00725D1600613D5600551
:1020100002D5C8F1000000E0404629680A1D2A6088
:102020000968220501D5087015E0220701D508804E
:1020300011E008600FE02868011D29600068210593
:1020400002D580F8008006E0210702D5A0F80080C4
:1020500001E0C0F8008038467EE72DE9FF5F4FF0D1
:1020600000089946144646469169D2E901A7DDF871
:1020700038B001988847054659EA0B0005D009E0B9
:10208000A1690198761C88470546216A2846884739
:102090000028F5D1681C03D05FEACA7005D015E0AE
:1020A0004FF0FF3004B0BDE8F09F2068011D2160B3
:1020B000D0F800800AE05FEACA7001D108F8015B3D
:1020C000A169761C01987F1E88470546002F1ADDFE
:1020D000681C18D0B9F1000F0DD0E81705EBD060DF
:1020E000421120F01F0059F822102A1A01209040B6
:1020F0000142E0D107E0BBF1000FDCD12846216AA4
:1021000088470028D7D0E16901988847BBF1000FC4
:1021100007D1002E05DD5FEACA7002D1002188F8E0
:102120000010A068B84203DDBBF1000F03D017B167
:102130006FF00100B6E73046B4E7000002681144D2
:102140001378016018467047D160054979445161A0
:1021500004497944116200211161114601F0E6B988
:10216000EDFFFFFF83360400426842B1016811F8B9
:10217000013B23B1521EC0E90012184670470121ED
:10218000C160881E704742685AB1C368016843B98C
:1021900083688B4205D0491E521CC0E90012002002
:1021A00070474FF0FF3070472DE9F04791460F46DA
:1021B00080460446002614F8015B2DB1FEF7A4F911
:1021C0000068405DC007F6D12B2D02D02D2D18D010
:1021D000641E4A463946204601F0DEFD27B13968C3
:1021E000A14201D1C7F800804FF0020471050BD560
:1021F0004042002803DDFEF78FF90460A007BDE828
:10220000F08746F48066E4E70028F8DAFEF784F900
:1022100004606FF00040F2E72DE9FF4F4FF0000837
:102220009A461446C146464683B0D2E901B7CDF876
:102230000080CDF80480916904988847109905467C
:102240005AEA010005D009E0A1690498761C884784
:102250000546216A284688470028F5D1681C03D026
:102260005FEACB7005D02AE04FF0FF3007B0BDE841
:10227000F08F2068011D2160D0F800801FE002A8C7
:102280006A46E9B202F07BF9411C07D0801C09D0F4
:102290004FF000095FEACB7007D00AE0E1690498CB
:1022A00088473EE04FF0010904E0BDF8081028F827
:1022B000021B7F1EA1690498761C88470546002FE3
:1022C0001ADD681C18D0BAF1000F0DD0E81705EB25
:1022D000D060421120F01F005AF822102A1A012063
:1022E00090400142CBD107E010980028C7D1284682
:1022F000216A88470028C2D0E16904988847B9F16B
:10230000000F0ED1109830B9002E04DD5FEACB70BB
:1023100001D1A8F80000A068B84202DD109818B1F9
:1023200017B16FF00100A1E730469FE72DE9FF4F9D
:102330004FF000089B461446454683B0D2E901960B
:10234000CDF80080CDF804809169DDF848A00498AC
:10235000884707465BEA0A0005D009E0A1690498AE
:102360006D1C88470746216A384688470028F5D102
:10237000781C03D05FEAC97005D01BE04FF0FF3036
:1023800007B0BDE8F08F2068011D2160D0F8008003
:1023900010E05FEAC97007D16A464046B9B202F060
:1023A0000EF9411C31D08044A1696D1C0498761E41
:1023B00088470746002E14DD781C12D0BBF10000C0
:1023C00007D03B46DDE9101201F039FD0028E0D1CD
:1023D00007E0BAF1000FDCD13846216A88470028AF
:1023E000D7D0E16904988847BAF1000F06D1002DD3
:1023F00004DD5FEAC97001D188F80000A068B0422E
:1024000003DDBAF1000F03D016B16FF00100B7E79A
:102410002846B5E72DE9FF5F9B46144600273D4659
:102420009169D2E90196DDF840A00198884780467D
:102430005BEA0A0005D009E0A16901986D1C884794
:102440008046216A404688470028F5D1B8F1FF3F11
:1024500003D05FEAC97005D014E04FF0FF3004B03C
:10246000BDE8F09F2068011D216007680AE05FEA6F
:10247000C97001D127F8028BA1696D1C0198761EE5
:1024800088478046002E15DDB8F1FF3F12D0BBF122
:10249000000007D04346DDE90E1201F0D0FC002811
:1024A000E5D107E0BAF1000FE1D14046216A884743
:1024B0000028DCD0E16901988847BAF1000F05D106
:1024C000002D03DD5FEAC97000D13880A068B042FA
:1024D00003DDBAF1000F03D016B16FF00100BEE7C3
:1024E0002846BCE700F0A8B8C16821F4001141F00B
:1024F0008001C16000218160016070472DE9F74FC4
:1025000015460C464FF0FF3B3848D768D2F814A068
:10251000074209D05046A9693DF072F9002819DB3D
:102520003248C0430740EF604FF000496FF0004869
:102530004C4501D3464600E0264600993B465046AE
:1025400032463DF089F9A96920F00042B21A1144DF
:10255000A96128B12846FFF7C7FF5846BDE8FE8F9E
:10256000A41BE5D10020F9E770B504460569C06AEF
:102570006168884200D80846E16821F42011E160D2
:10258000C90312D5A84208D02246411B2846FFF7AE
:10259000B5FF10B14FF0FF3070BD0020E562C4E917
:1025A0000150E06820F48030E060002070BD10B57C
:1025B0000446C06820F02000E060A16AA06988425B
:1025C0000DD02046FFF7D0FFE06820F4405040F0E7
:1025D0001000E060A06AA0612069E062606044F2DF
:1025E0004001E0688843E06010BD00001000020078
:1025F000CA68431C0FD00D4B1A420CD1D3070AD026
:1026000081F825004B680B6300238B6012F0C06FCC
:102610000B6003D004E04FF0FF30704742F00072CF
:10262000034B1A40034B1A43CA60704780200800CE
:10263000BFFFDFFF0010480070B5044600F14C05F5
:1026400028463CF0AFFF204658F0BCF80446284628
:102650003CF0DCFF204670BD70B50C46064601F12B
:102660004C0528463CF09EFF21463046FFF7C0FF50
:10267000044628463CF0CAFF204670BD10B56548A8
:102680005421FEF71BFE64485421FEF717FE6348F1
:102690005421FEF713FE62485E49624A624B0160B4
:1026A0005D4810605D4A1A60431C0B65511C016552
:1026B0000120106557484C303CF08EFF56484C3096
:1026C0003CF08AFF55484C303CF086FF57483CF0C0
:1026D00083FF58484F4A56A17844FEF7F1FA20B9D3
:1026E000544878440A3801F0D9FF54484A4A52A164
:1026F0007844FEF7E5FA20B9504878440A3801F0EA
:10270000CDFF4F48454A4CA17844FEF7D9FA20B98D
:102710004B4878440A3801F0C1FF40233D48DC00B3
:102720000021224601F0D4FD20B1424878445438BB
:1027300001F0B4FF384822464023002101F0C8FDD3
:1027400020B13E487844543801F0A8FF334822466F
:102750001023002101F0BCFD002806D03848784441
:10276000BDE81040563801F099BF10BD2B482DE947
:10277000F041006D2D4E20F0010430463CF012FF78
:10278000244D4C3528463CF00DFF2248FEF77FF9DA
:1027900028463CF03BFF28463CF014FF1E4D4C35CC
:1027A00028463CF0FFFE1C48FEF771F928463CF035
:1027B0002DFF28463CF006FF184D4C3528463CF0CE
:1027C000F1FE1648FEF763F928463CF01FFF284645
:1027D0003CF0F8FE14E0206D20F0010504F14C00FF
:1027E00007463CF0DFFE2046FEF751F938463CF044
:1027F0000DFF38463CF0E6FE2046FDF735FF2C463F
:10280000002CE8D130463CF001FF08483CF0DAFEED
:10281000BDE8F0810025002054250020A8250020D7
:102820000000002004000020080000200C00002010
:1028300072000000DCD4050077000000CBD4050056
:10284000A4D405002DE9F041074615460E46102098
:10285000FDF7CFFE04000AD06760C4E9026500F00E
:10286000BEF80168216004600020BDE8F08101200D
:10287000FBE710B501F0FAFEBDE8104001F0F1BE33
:1028800070472DE9FC470E4681466F4601F138023C
:102890000146384601F093FE04004FF0FF3824D57E
:1028A000FDF73AFE042101600CE0B568002D0CDC58
:1028B00031463878002201F01AFC401C02D0641E18
:1028C0007F1C12E04046BDE8FC87A54200DD25469E
:1028D00039462A467068FEF7C6FB70682F442844C4
:1028E0007060B068401B641BB060002CDDDC4846A3
:1028F000E9E702F014B970B50C46064601F14C0543
:1029000028463CF04FFE21463046FFF7BAFF04460A
:1029100028463CF07BFE204670BD000070B50C469A
:10292000054601F14C0630463CF03CFE681C0DD0DB
:10293000E06810F4025F09D1C00707D094F848009E
:10294000012803D805D194F8491039B94FF0FF3563
:102950001EE018B94FF0000184F8491004EB400163
:1029600000F1010084F84800A1F84050E06810F040
:10297000C06F02D140F08060E060084940EA010089
:1029800020F04000E0602068002801DD4042206027
:1029900030463CF03BFE284670BD00000010400071
:1029A00080E8FF1FC0F834D0C0F838E0C0F83CE041
:1029B0004FF00000704700BF80EC200B704700BF55
:1029C00080EC200B704700BFC0EC200B704708B5AF
:1029D00069468DF800000320ABBE08BD704710B5F6
:1029E000FEF71CFD383010BD0844401E491E8843C8
:1029F00070470821001DF7E72DE9F0410F4680469A
:102A0000041FFEF70FFD066807B3B8F1000F384644
:102A100022D0FFF7EEFFB84205463CBF0020BDE8DC
:102A2000F08106F108003CF0BDFD2268AA4238BFE3
:102A3000314615D3511B082931D36019002240F8C3
:102A4000041B31462560FDF7DEFD28E04046FDF71A
:102A50000BFE0020BDE8F081BDE8F041FDF7C9BDE7
:102A60004868002818BFA04238BF0146F8D31319A0
:102A700083421BD103681A44954217D8531B082B75
:102A80000AD3436862195360236800681844401BE6
:102A9000106025604A6002E022604068486006F1EC
:102AA00008003CF0B3FD201DBDE8F0810022314656
:102AB0003846FDF75DFD05000AD041462068021F3B
:102AC0002846FEF757FB00223146201DFDF79BFDEF
:102AD00006F108003CF09AFD2846BDE8F081801A16
:102AE0000844401E491E88431044704770B5144680
:102AF00005468C464368002B18BF634538BF18460F
:102B0000F8D302681044604508D066466046042247
:102B10000821FFF7E4FF811B8446641A2946CCF89C
:102B20000040BDE8704000220CF10400FDF76BBDD1
:102B300030B5B0F10A0271F100034FEA900E4EEA8F
:102B4000817EB0EB0E0061EB91014FEA101E4EEA60
:102B5000017E10EB0E0041EB11114FEA102E4EEAF0
:102B6000016E10EB0E0041EB11214FEA104E4EEAC0
:102B7000014E10EB0E0041EB1141401841F10001F4
:102B80004FEAD00040EA41704FEAD1014FEA810498
:102B900044EA907410EB800544EB01046D1944EB9A
:102BA0000404521BA3414FF0000348BF0A3200D572
:102BB00030BD401C41F1000130BD10B502F013F8EA
:102BC00000F0080010BD2DE9F0410F4613461546F0
:102BD0000A46064600210846FDF766FE0446401CEC
:102BE000FDF707FD306030B1611C2B463A46BDE869
:102BF000F041FDF759BE4FF0FF30BDE8F081000015
:102C00000FB41CB50C0007AA009007D04142A142A6
:102C100002D32044401E01E04FF0FF30074B7B44BD
:102C2000694601900698FEF7C4FE0021002C01D0F1
:102C3000009A11701CBC5DF814FB0000C1EDFFFF91
:102C40007CB51D4616460C00009007D04142A142BB
:102C500002D32044401E01E04FF0FF30064B7B447E
:102C60002A46694601903046FEF7A3FE002C02D0AA
:102C7000009A002111707CBD81EDFFFF2DE9F04726
:102C80000D4699469246044600F1240801688806DC
:102C900004D5E06921F01001216000E00120A84284
:102CA00001DD471B00E00027A1697A1902EB09004A
:102CB000081AA0612078C00602D42046FEF7C1FDA4
:102CC000002608E0D4E901211AF806009047206A9E
:102CD000401C761C20624E45F4DB2078C0060AD5E5
:102CE0002046FEF7AEFD06E0D4E9012130209047F2
:102CF000206A401C2062381EA7F10107F4DC07E0BF
:102D0000D4E9012118F805009047206A401C206290
:102D1000281EA5F10105F3DC2046FEF7A8FD20786A
:102D2000000602D50220BDE8F0870120FBE72DE96F
:102D3000FF4F0C461E464FF0FF378BB0D2E9000123
:102D4000DDF860800A908A46C1F30A5505B93D4610
:102D5000002108464FF00000BAF1000F00F44000D7
:102D600005DA00EB80004FF4400101EA50004FEA21
:102D70009059B9F1010F00DDB9460A9850EA4A00AE
:102D80000ED044F61050A5F2FF3545432F14B8F18C
:102D9000000F1ED07542291E1EDDC9F100021CE085
:102DA000B8F1010F4FF0000001D0302103E0F243F1
:102DB00005E02154401CB042FBDB304600220021DC
:102DC00021540B99C1F80880C1E900200FB0BDE87B
:102DD000F08FBD1B6D1CDEE74A4600DA694206A88B
:102DE00002F096F806AB93E8070003AB83E8070010
:102DF00050460A9956F03FFF8DE80700A0F50050B5
:102E00001F3800900398002D0ADD42F21F014A4648
:102E10000844002303A90390684657F0EBF909E042
:102E2000A0F500504A461F38002303A903906846C6
:102E300057F00AFA8DE807000004000C03D04FF0A9
:102E4000FF30410800E01046B8F1000F03D0002227
:102E5000009215461EE0751E05D4FFF769FE30325C
:102E600062556D1EF9D5B3460122084302D00022F7
:102E70007F1C04E02078302801D100227F1E002A28
:102E8000099784D01DE0112D07DAFFF751FE30328B
:102E900062556D1C50EA0102F5D1084302D000983A
:102EA000C8B10EE00021681E05E0235C625C63543B
:102EB0002254401E491C8142F7DBAB46A81B401E32
:102EC0000990002004F80B000B98099AC0F80880BC
:102ED000C0E9002B7AE711264FF0000857E72DE9EB
:102EE000F04F88460446D21D22F0070191B0D1E987
:102EF0000001CDE90A0157F02EFB02460B98C00FE6
:102F000001D02D2007E02068810701D52B2002E0A9
:102F1000202101EAC000032A099001D0072A05DB1D
:102F200003464146204601F091FE0BE120788006E1
:102F300001D5E06900E00620B8F1650F814606D0B2
:102F4000B8F1660F18D0B8F1670F70D131E00020EA
:102F5000B9F1110F009001DB112301E009F1010328
:102F60000AAA01A90CA8FFF7E2FEDDE90C70002611
:102F700009F10105834647E001204B4600904FF0E0
:102F800000470AAA01A90CA8FFF7D1FEDDE90DB0A0
:102F90000C995D46002610B909F101000D18B9EB36
:102FA000050003D4C0F1FF3609F10105A5EB0900C6
:102FB0002BE0B9F1010F01DA4FF001090020B9F15E
:102FC000110F0090484601DD112300E003460AAAD4
:102FD00001A90CA8FFF7ABFEDDE90C704D460026F9
:102FE0008346207800070AD4AB4500DA5D4601A885
:102FF000012D04DD411911F8011C302907D04F457E
:1030000002DA17F1040F04DA012082460FE06D1E88
:10301000EEE7002F02DCED1B3E4403E0781CA842E3
:1030200000DD7D1CB81B00F1010A4FF0004720783D
:10303000000703D4AA4501DB4FF0FF3A0021B7F1A6
:10304000004F0DF143088DF8431024D002202B23AC
:10305000002F01DA7F422D230A21021EA0F1010078
:1030600000DC5FB197FBF1FC97FBF1F201FB1C7CEC
:1030700017460CF1300C08F801CDEEE7A8F101007D
:1030800003702188090501D5452100E06521A0F1E3
:10309000010800F8011C09980FA9A1EB0807FF1D02
:1030A00000B10120411901EBEA70A1693844081A06
:1030B000401EA0612078C00602D42046FEF7C1FB66
:1030C000099828B1D4E901219047206A401C206268
:1030D0002078C00622D52046FEF7B3FB1EE0002E66
:1030E00004DBB34502DD01A8805D00E03020D4E9B7
:1030F00001219047206A401C2062761CAAF1010041
:103100005FEA000A0AD1FEF792F9C0680168405CE4
:10311000D4E901219047206A401C2062281EA5F1B5
:103120000105DCDC07E0D4E9012118F8010B904728
:10313000206A401C2062381EA7F10107F3DC2046FC
:10314000FEF795FB032011B041E600002DE9F04F9A
:1031500004460D46D21D22F0070089B0D0E9009741
:103160004846394657F0F7F90246F80F01D02D23AB
:1031700007E02068810701D52B2302E0202101EA26
:10318000C0038DF820300BB1012000E00020032A9D
:10319000824601D0072A04DB2946204601F056FD6D
:1031A0003FE12078800601D40D2500E0E569C7F3F2
:1031B0000A560D2D49DA00214FEA175B08464FF0F9
:1031C0000000002F00F4400007DA00EB80004FF40D
:1031D000400100EBD07001EA60008115012901DD9A
:1031E0004FF0FF3100224FEA850CBCF1180F06D3D7
:1031F0001346ACF118004FF08052C24003E04FF488
:10320000801323FA0CF30CF10C0CBCF1200F04D347
:10321000ACF1200C09FA0CF001E007FA0CF00029DF
:103220004FF0004801DD18B90FE00ED140450CD336
:1032300019EB02095F4121B9404502D19F4329EAB8
:103240000209BBEB175F00D0761C2088000502D571
:103250007B48784402E07A487844193808AA302339
:1032600002F80A30037C0AF10101002E0AF1020A79
:1032700053546A4602DC4FF0300101E04FF0310157
:103280004FF001088DF8001002D0A6F2FF3603E0DF
:1032900059EA470100D06B4E002D02DC2178090766
:1032A00004D54FF002082E218DF80110C4460021EC
:1032B0000BE0C7F303433F01C35C491C6D1E02F8DA
:1032C0000830052908F1010801DA002DF1DC0021A0
:1032D0000CE000EB1973491C1B786D1E082902F8DD
:1032E00008304FEA091908F1010801DA002DF0DC75
:1032F00021688B0602D516E0A8F10108E04505DD3E
:1033000002EB080313F8013C302BF5D0B8F1000FA5
:1033100009DD02EB080313F8013C2E2B03D109074A
:1033200001D4A8F10108002D05DD3E2102F80810A6
:103330006D1E08F10108407C002E02F8080008F11B
:10334000010804DA2D20764202F8080002E02B2062
:1033500002F808000A214FF47A70864208F1010849
:103360000BDB96FBF0F3303302F8083096FBF0F3FA
:1033700008F1010800FB136601E0642E0CDB6420F9
:1033800096FBF0F3303302F8083096FBF0F308F1C7
:10339000010800FB136601E00A2E06DB96FBF1F044
:1033A000303002F8080008F1010896FBF1F001FB4B
:1033B0001060303002F80800A16908F1010808EB3C
:1033C000050202EB0A00081AA0612078C00602D4A8
:1033D0002046FEF736FA216A08AE01EB0A002062A9
:1033E00004E0D4E9012116F8010B9047BAF1010A73
:1033F000F7D22078C00602D52046FEF722FA6E46A4
:1034000009E016F8010B3E280FD0D4E901219047BE
:10341000206A401C2062B8F10108F2D22046FEF773
:1034200026FA09B00320BDE8F08F206A2844206204
:1034300003E0D4E90121302090476D1EEBD3F8E77B
:103440005E93050002FCFFFF10B5436913B1AFF3B3
:10345000008001E0FEF72EFA012010BD127800F185
:1034600024010A7000224A700122EDE711684FF032
:10347000FF32E9E710B5436913B1AFF3008001E013
:10348000FEF7B8FA012010BD128800F124018284F1
:103490000022C2840122EDE711684FF0FF32E9E714
:1034A00000B58DB0099000920B904FF0FF300A905C
:1034B00000200C90054878440690054878446A46F8
:1034C000079009A8FEF740FE0DB000BDAFECFFFF6E
:1034D000C7ECFFFF0FB400B58DB010A909900091A3
:1034E0000B904FF0FF300A9000200C900648784473
:1034F0000690064878446A4607900F9909A8FEF797
:1035000023FE0DB05DF814FB77ECFFFF8FECFFFF9F
:103510003A2800D2303820F02002412A01D3A2F10B
:103520003700884201D34FF0FF3070472DE9F34F49
:103530004FF0000A0C4656468DB001200C9001F168
:103540000C000B9062690B9801219047051E2DD04D
:10355000252D2CD0216A8847C0B162690B980121C2
:103560009047216A88470028F7D16269411E0B986D
:10357000904700E0761CA1690D988847216A88472A
:103580000028F7D1E1690D988847DBE7A1690D981C
:103590008847A842074601D1761CD3E7E1690D9818
:1035A00088477F1C02D1BAF1000F6FD06BE16269CE
:1035B0000B9800273D46394690472A2804D1626976
:1035C0000B98012190470125DFF8D08262690B98A2
:1035D00001219047A0F130010A290AD24745E5DCD4
:1035E00007EB870100EB4107303FDFD445F01005C2
:1035F000ECE7E90601D46FF000476C280AD04C28AC
:1036000014D0682815D06A280DD074281CD07A28C8
:103610001AD01DE062690B98012190476C2802D0F6
:1036200045F0040514E045F002050DE045F02005E5
:103630000AE062690B9801219047682802D045F0A2
:10364000080505E045F4006562690B980121904783
:10365000C4E9015765283DD019DC58287AD00CDC24
:10366000452837D004DC252826D041289ED131E0DA
:1036700046282FD0472899D12CE05B2877D06128A5
:1036800028D063287CD0642823D15AE0F6E06F2844
:1036900048D008DC66281DD067281BD0692821D0B7
:1036A0006E2816D127E0702845D0732868D0752879
:1036B00047D078280DD14DE0A1690D98884725287D
:1036C00005463FF469AFE1690D9888476D1C3FF4EA
:1036D0006AAFD8E00D9923466A466FF0010057F0B3
:1036E000C4FBC5E045F0400023464FF00002606097
:1036F000A80736D43EE0E8077FF447AF2068011DF5
:1037000021600068290501D506701BE7290701D54E
:10371000068017E7A90703D5F117C0E9006111E793
:1037200006600FE745F0400023464FF00802606056
:10373000A80716D41EE040F60E0125EA01006060DD
:1037400016E045F0400023464FF00A026060A807EB
:1037500007D40FE045F040006060A80708D5234675
:1037600010220D996FF00100FEF726FB80E007E0C4
:10377000102223460D996FF00100FEF7C8FB77E099
:103780004FF0000963284F46C8464B46CB4602D04F
:103790005B2806D038E0E80601D40120A0600127AC
:1037A00032E06269D4F80CB00B98012190475E2892
:1037B00007D14FF0010949466269D4F80CB00B9863
:1037C0009047216939B900210A4603AB43F821200B
:1037D000491C0829FADBD8B3216949B308F101086B
:1037E00062690B98012190475D28F4D1B9F1000F6F
:1037F00009D0002003A951F82020D24341F820200D
:10380000401C0828F7DB03AB2069002820794FEA29
:1038100040701ED05B462246CDF80080CDE901976E
:103820000D9900286FF0010020DAFEF7F3FD1FE08C
:10383000C11703AA00EBD1614B1121F01F0102EB6C
:103840008302411A13680120884003431360C7E7CD
:1038500019E00D99224600286FF00100009702DA66
:10386000FEF7DAFC04E0FEF7F8FB01E0FEF75EFD90
:1038700000280ADA401C06D10C9820B14FF0FF3026
:103880000FB0BDE8F08F5046FAE7E90701D10AF121
:10389000010A064400200C9054E60000CCCCCC0C6D
:1038A0002DE9FF4F06468BB00878FF2806D0491C4B
:1038B0002D2805D000244FF0000908E000200CE07E
:1038C0000124F8E709EB8903491C00EB4309087858
:1038D000FF28F7D114B1C9F1000081461078002506
:1038E0002C46AA4629462D2801D02B2804D1521C4B
:1038F0002D2813D0002082468B461078FF280FD049
:103900004FF0000C0A21521CA5FB017804FB018139
:1039100005FB0C11C5194BEB0104EEE70120EAE7AA
:10392000002108464FF00000BAF1000F02D000EB72
:1039300080004008C0F38157012F01DD4FF0FF37B1
:103940000E9955EA040009EB01080BD04FF002096B
:1039500018F5FA7F16DA4FEACA70002F706008DD9A
:10396000012007E04FEACA70C6E900B00FB0BDE819
:10397000F08F00203060FCF7CFFDC0F800901821D8
:10398000084616E0B8F5FA7F18DD002F02DAF7488E
:10399000784401E0F6487844D0E90010C6E9001008
:1039A00040EACA707060FCF7B7FDC0F800901421BF
:1039B00008460FB0BDE8F04F57F0F0B900210846B7
:1039C0004FF00000B8F10001099002DAC7F10002DF
:1039D00000E03A4601DAC8F1000106A801F098FAC1
:1039E00006AB93E8070003AB83E8070044F23E0010
:1039F0005BEA04010090584604D144F21E012C46B3
:103A00005D460091210C0904014306D1009924046C
:103A100044EA15442D041039009104F07F4101431C
:103A200006D10099240244EA15642D020839009158
:103A300004F07041014306D10099240144EA157451
:103A40002D01091F009104F04041014306D1009966
:103A5000A40044EA9574AD00891E009104F0004171
:103A6000084304D100986D196441401E00904FF046
:103A700001033A466846B8F1000FCDE9014503A9B4
:103A800002DD56F0F6FB01E056F0C9FBBAF1000F7B
:103A900004460D4601D084F00044002108464FF052
:103AA0000000099940F2FF77484010F00C0F07D151
:103AB00024F00040284303D0C4F30A50B84212D186
:103AC000FCF72AFDC0F80090C4F30A50B8420AD1AE
:103AD000A8487844D0E90010C6E9001004F000417D
:103AE0000843706042E7C6E900543FE72DE9FF4F05
:103AF0001F464FF0000A4FF0FF38454691B0D7E916
:103B00000146CDF83CA0FDF792FCC0680168405C1E
:103B10001090B96912986D1C8847396A81468847A8
:103B20000028F6D1B9F1FF3F0AD0002E24F4D0646A
:103B300011DDB9F12B0F08D0B9F12D0F0BD102E037
:103B4000404615B013E744F48064B96912986D1CBF
:103B50008847761E8146600504A901D52D2000E026
:103B60002B20002E01F1010B0DF130088DF8100013
:103B70003FDDB9F1690F08D0B9F1490F05D0B9F1AE
:103B80006E0F02D0B9F14E0F1CD13B4601A8009533
:103B900080E85002DDE912126FF0020057F069F977
:103BA000C11CCED10EE0B96912986D1C88478146C0
:103BB0001398761E44F4007405600F98401C002E84
:103BC0000F9016DDB9F1300FEDD0B9F1780F02D0BA
:103BD000B9F1580F0DD10F9801280AD13B46CDE914
:103BE0000054DDE91212001F029657F040F9C11C83
:103BF000A7D1109989453ED144F0800406E013997D
:103C0000681CAAF1010A44F400740860B9696D1CCB
:103C10001298761E884730288146F0D02BE0109904
:103C2000894505D1200603D4761E44F0800418E0AF
:103C3000484656F0C0FD08B3761E0DF123029345A9
:103C4000A9F1300044F4007406D20BF8010B2006F1
:103C500007D5AAF1010003E0200602D40AF1010011
:103C60008246A00502D51399681C0860B9691298AC
:103C70006D1C88478146002ED1DC53E0002E51DDBB
:103C8000B9F1650F02D0B9F1450F4BD1A00549D567
:103C9000B9696D1C1298761E24F440748847002E72
:103CA00081460CDD2B2804D0B9F12D0F07D144F447
:103CB0008074B96912986D1C8847761E8146E005AC
:103CC00001D52D2100E02B2108F8011BCDF8008043
:103CD00021E0761E0DF13901884544F400740CD2C0
:103CE000A9F1300010F0FF0088F8000002D100991F
:103CF000884509D908F1010806E0E00501D51E480C
:103D000001E042F20F708246B96912986D1C884733
:103D1000814613980560002E04DD484656F04BFDA1
:103D20000028D6D1F96912988847FF2053468BF8AE
:103D3000000088F8000000200A900B9004AA0CA94B
:103D40000AA8FFF7ADFDA00502D46FF00100F8E668
:103D500014F0240F12D0E0071CD13868DDE90A12F4
:103D6000031D3B600068C0E9001213E01CC8060098
:103D70000EC80600D2C60600F1D8FFFF0AA96846A1
:103D800056F006FDE00705D13868009A011D39603C
:103D9000006802602846D4E62DE9F05F82461546A9
:103DA0008B4600270AF10104B9460078302801D07B
:103DB0009DB113E014F8010B0127782803D058288F
:103DC00001D045B10AE00DB1102D07D1002714F83C
:103DD000010B102502E0082500E00A250026B04668
:103DE0000EE005FB080005FB06F101271FFA80F82D
:103DF00001EB1046B6F5803F00D3B94614F8010B2D
:103E00002946FFF785FB0028EBDABBF1000F05D050
:103E10000FB1641E00E05446CBF80040B9F1000F2A
:103E200006D0FCF779FB02210160C81EBDE8F09FB7
:103E300048EA0640FAE700F0E5BF01F02BB810B5FC
:103E400008E030F8024B9C4204D10AB1002010BDBA
:103E5000012010BD491EF4D2104610BD704710B5A8
:103E60004FF0FF34C1688A020FD5036B42689A4253
:103E70000BD1014690F825201046FEF7B9FB401CF7
:103E800001D1204610BD002010BD11F0C00FF8D1A7
:103E9000026941689142F4D90268491E521CC0E986
:103EA0000021F0E770B50D4601461446D36850690D
:103EB0002A463BF075FC002807DA411C07D0E16870
:103EC00020F0004041F48041E160281A70BD204696
:103ED000FEF70AFB4FF0FF3070BDC16800220260A0
:103EE00021F4805141F0400111F4C06FC16001D054
:103EF0008260704702694168891AC269891A8160C3
:103F000070472DE9F05F04468946C06840F48000A0
:103F100010F4C06FE06008D0204601F0A9F92068D5
:103F2000002802DD401E206033E0E068010312D566
:103F300020F40020E060810606D4E26A61688A42CB
:103F400000D80A46511A216040F40010E06094F84D
:103F50002500BDE8F09F20F40010E060800602D547
:103F60002046FEF724FBE06842F281014FF0FF3A61
:103F70000140012903D02046FEF7B6FAB0E02168DF
:103F8000002600290ADAC94340F480502160C4E9C0
:103F900002606068411C61600078DAE744F2400129
:103FA00008420CD020F4A04040F040002660E060C1
:103FB00021696068401AE169401AA06090E02169B7
:103FC00091B9C00310D4E069FCF713FB2061B0B1D4
:103FD000E06840F4006010F4407FE06002D140F4FB
:103FE0008070E06020696060E068D4F814B0C106B9
:103FF0001AD5C0030ED52046FEF7B6FA14E004F138
:10400000240020610120E061E06820F4407040F469
:104010008060E6E721696068401AA169014458465A
:104020003BF0EEFB0028A6DBE068C0032BD56168FF
:10403000E06A884200D808462169451AE069471BB2
:104040001CD02046D4F81880FEF78EFA08EB050144
:104050005846C4F818803BF0D3FB00288BDBE0689F
:10406000B9F1000F40F40030E06002D0A0692844AC
:10407000A061E1692069C91B45180DE02046FEF7E3
:1040800073FAE769F5E725696168D4E90607491B12
:10409000E56208446560A061E068B9F1000F20F0B6
:1040A000100040F48050C4E9026005D02069E0624D
:1040B00060606FF001004CE7224639462846FFF762
:1040C000F1FE411C0CD02918E16258B1401E20605D
:1040D000681C6060E06840F40030E060287838E7F1
:1040E000504636E765602046FFF7F7FEF8E72DE912
:1040F000F05F054617460C46C86820F4201040F4CF
:104100008000C860800602D50846FEF750FAE068D5
:1041100041F282014FF0FF3A0140022903D02046CC
:10412000FEF7E2F9B9E000F42041B1F5004F0FD1FC
:10413000C00306D56168E06A884200D8084660601E
:1041400006E02069E062606060693BF099FAA06176
:10415000A0680022EEB200280DDAE1688B050AD4CF
:10416000C043A06041F490302260E0606068411C70
:1041700061600670AAE0E0689146226040F4005059
:10418000E060206978BB60693BF0A2FA04F1240585
:104190004FF00108A8B1A08910F4407F08D0E06971
:1041A000FCF727FA206118B1E06840F4006017E0DE
:1041B000C4F81C802561E06820F4407040F4806001
:1041C0000EE0E069FCF715FA00282061F0D0E06805
:1041D00040F4006010F4407FE06002D140F4807051
:1041E000E06020696060E06825696FF0010BC1053F
:1041F0001ED56168E06A884200D80846411B04D099
:1042000022462846FEF77AF9E8BB1FB1E562C4E909
:10421000015959E0681CE0626060E069401EA060DE
:10422000E06840F48030E06030462E70BDE8F09FDA
:1042300017B100F480320AE06068411C61600670CA
:10424000E0680A2E40F48030E06006D00022E16A87
:104250006068814203D90B4602E00122F7E703467A
:10426000B4F80CC05B1B5FEA4C5C04D4D4F81CC0EF
:104270009C4500DD02B3814200D80146002BA1EB32
:104280000008E56200E008E0C4E9015907DD2246C4
:1042900019462846FEF732F908B15046C6E7B8F18C
:1042A000000F09D0A169E5626560A1EB0800A0617B
:1042B000E06840F01000E06047B16168A069E56225
:1042C000491B08446560A0615846AFE73046ADE73A
:1042D0002DE9F04704461E4690460D46C7684C300F
:1042E00081463BF05FF9B80714D0780212D44046FB
:1042F000B8F5807F09D0B0F5007F06D0B8F5806FA3
:1043000008D1012604F1240506E0701E6FF07F41FC
:10431000884201D3012409E02561E6616560E06817
:1043200020F4706040EA0800E060002448463BF05A
:104330006DF92046BDE8F0872DE9FE430E4617468D
:10434000804600210846AFF300800546002000901B
:1043500001905EB130784FF0FF3900B1AFB11DB1BF
:10436000D5E90001CDE9000100240CE00020BDE802
:10437000FE83315D6A46641C02A800F000F9411C0E
:1043800003D0012803D0BC42F3D34846EFE71DB168
:10439000DDE90001C5E90001B8F1000F03D0BDF867
:1043A0000810A8F80010BDF808000028DFD020464B
:1043B000DDE770B50C4605460AB1104603E004215E
:1043C0000020AFF3008022462946BDE87040034636
:1043D000002000F03DB82DE9F84F9146884605468B
:1043E0004FF000045FEA030A0E682BD1072100207A
:1043F000AFF30080824625E016F8011B524668465E
:1044000000F0BDF80746401C0FD0BF1C1AD01DB1EC
:10441000BDF8000025F81400BDF80000641C58B178
:10442000002DE9D0C8F800600EE0FCF775F8042113
:1044300001603846BDE8F88F15B10021C8F80010BA
:10444000601EF7E7002DD7D04C45D5D32046F1E7C5
:1044500000F044BF00F07EBF2DE9F84F9B46904628
:10446000894605460024DDF828A00E685FEA0A00A8
:1044700033D10921AFF3008082462EE0B8F1000F5E
:104480001AD05246684616F8011BA8F1010800F040
:1044900076F80746401C13D0BF1C1ED01DB1BDF8D6
:1044A000000025F81400BDF80000641C78B1002D50
:1044B000E4D0C9F8006012E09DB1C9F8006010E0D6
:1044C000FCF72AF8042101603846BDE8F88F15B1E1
:1044D0000021C9F80010601EF7E7002DCED05C4522
:1044E000CCD32046F1E72DE9FF4F91468A4680461E
:1044F00083B00024109F0D68A7BB0A210020AFF3F2
:10450000008007462EE017B1D7E900B102913A4684
:104510006846298800F053F80646401C0BD0B8F1D5
:10452000000F16D00698311981420CD9EFB10299CB
:10453000C7E900B119E0FBF7EFFF04210160304645
:1045400007B0BDE8F08F08EB040032466946FCF77F
:104550008AFD2888344450B1AD1CB8F1000F01D059
:10456000CAF80050B9F10109CDD22046E8E7641E2F
:10457000B8F1000FF9D00021CAF80010F5E7F8B53E
:1045800016460C460546FBF7BFFF036893F801018A
:10459000012804D0185D78B101202C80F8BDD3F833
:1045A00003013246214603F20313C718684600236D
:1045B000B84700992980F8BD4FF0FF30F8BD2DE9CC
:1045C000F04116460C460546FBF79EFF036893F83C
:1045D0000101012807D0FF2C12D8185D80B10120FD
:1045E0002C70BDE8F081D3F807013246214603F272
:1045F0000713C7182846BC46BDE8F04100236047B2
:104600004FF0FF30EDE710B5FBF77EFF006890F844
:104610000111012901D0012010BDD0F80B0110BDFE
:104620002DE9F0410646FEF7DAF98046454613E0EB
:1046300016B1E068B0420ED120682860D4E90101CB
:10464000D8F8007088472046FCF70EF8D8F800002C
:10465000B842EBD100E025462C68002CE8D1BDE83B
:10466000F081002801D0FCF7D3BE704710B50021BF
:1046700002A000F08CFE012010BD0000534947410C
:104680004252543A2041626E6F726D616C207465C3
:10469000726D696E6174696F6E00000010B500F094
:1046A0008FFEBDE81040FFF7DCBF10B500F0A2FEA2
:1046B000BDE81040FFF7D5BF01E0801C521E1AB1C3
:1046C00003888B42F9D1704700207047002101E038
:1046D000801C491C0288002AFAD108467047CBB2D8
:1046E0002AB101788B4203D0401C521EF9D1002020
:1046F0007047000070B5054601B90721541A241D02
:10470000B4F5B67F09DD286800F05DF9A04204DC4D
:104710002868401C2860012070BD002C05DA28683C
:10472000401E286000F04FF90444072094FBF0F08D
:10473000401C70BD2DE9F04F1F4615468B46824642
:10474000002689B0FCF773FED0F810800024BBF17E
:10475000000F70D015F8010B10B125280DD10FE016
:1047600024B1641E06A850F82450F3E70021304617
:104770000AF8061009B0BDE8F08F0AF80600C7E095
:10478000E94615F8010B592870D023DC49286ED072
:1047900014DC44286DD008DC2528EED041283ED01A
:1047A000422849D043282CD156E04528E9D0462854
:1047B00069D0472876D0482823D17AE04D380C2894
:1047C0001FD2DFE800F0881E061E1E9BA0A9B3B50D
:1047D000C1CFD6E75A38212813D2DFE800F01112F2
:1047E00012121212121A263745501259261274123A
:1047F00012797E128012891296A212B3BDCB1100DB
:10480000A8E725200AF80600761C5E4513D26D1E27
:10481000A0E7D8F80010BA69D8F8240011E0D8F859
:104820000410BA69D8F828000BE0D8F808103A69E3
:10483000D8F82C0005E0B2E0D8F80C103A69D8F8A6
:10484000300002FB001101EB0809AAE006A840F8BD
:104850002450D8F818108AE07969642091FBF0F2AE
:104860001332484668A192E0FA6889E08AE022E0C3
:10487000FFE706A840F8245065A5641C6AE7FA68BB
:1048800066A1484683E006A840F8245064A5F4E7F2
:10489000384600F0ADF8642190FBF1F201FB120202
:1048A00058E0FFE7384600F0A3F802465FA16846EB
:1048B0006DE0BA6864E0B8680C210B3090FBF1F24F
:1048C00001FB120205E0FA6959A14846521C5EE05C
:1048D0003A694DA1F9E77A6852E00A2116E0B86812
:1048E0000C2802DAD8F81010ADE7D8F81410AAE7AF
:1048F00006A840F82450D8F8341038E006A840F84C
:1049000024504DA5B9E73A683AE009210AF80610A3
:10491000761C5E45B2D342E006A840F8245048A574
:10492000ABE7BA6902B9072248A1AAE700210CE067
:10493000786900F26C700890D7E9061208A8FFF7B2
:10494000D9FE06E0BA69EFE70121D7E9062000F0B9
:104950002EF802462CA1AAE706A840F82450D8F861
:104960001C1004E006A840F82450D8F8201001EBF1
:10497000080582E77969642091FBF0F200FB1212CE
:1049800021A17EE77A69484628A102F26C72FBF702
:1049900043FF06E00AF80600761C5E4501D30020BE
:1049A000E8E619F8010B00283FF4DFAEF2E7511AF0
:1049B00000D5C91D401A01D500207047072190FB82
:1049C000F1F0401C704781070CD1642190FBF1F29B
:1049D00001FB120151B94FF4C87190FBF1F201FBD8
:1049E000120018B1002000F26D1070470120FAE7A4
:1049F00008B5416901F26C710091D0E90612684670
:104A0000FFF778FE009808BD252E326400000000F4
:104A1000256D2F25642F25790000000025326400C4
:104A200025592D256D2D256400000000256400000A
:104A3000252E33640000000025483A254D00000073
:104A400025483A254D3A255300000000252E3164B3
:104A50000000000070472DE9FC4704464FF0FF3985
:104A6000007B400629D4D4E90E01CDE90001FFF70F
:104A7000CAFD012507464FF0040804F1400A2EE064
:104A8000216800291BDC94F8480050B1C0B2401ED8
:104A9000C0B284F8480004EB4000B0F84000BDE824
:104AA000FC8700212046FFF72CFA0646E068010645
:104AB00003D4400609D5012D24DC4846EFE76068A1
:104AC000421C62600678491E21606A465046F1B277
:104AD000FFF755FD01281AD0401C02D06D1CBD42C5
:104AE000CEDD6A46D4E90E01CDE900015046F1B2AF
:104AF000FFF745FD401C05D02068401C2060606821
:104B0000401E6060FBF708FDC0F80080D5E784F820
:104B10004950DDE90001E4E90E012089BFE770B5E5
:104B2000044600F14C0528463AF03CFD2046FFF7CC
:104B300092FF044628463AF069FD204670BD000009
:104B400086469EE8FF1FDEF834D0DEF83CE0704772
:104B500090EC200B704700BF90EC200B704700BF1B
:104B6000D0EC200B70477546FCF758FCAE460500AC
:104B70006946534620F00700854618B020B5FBF77C
:104B8000A5FCBDE820404FF000064FF000074FF0B5
:104B900000084FF0000BAC46ACE8C009ACE8C00917
:104BA000ACE8C009ACE8C00921F007018D467047A8
:104BB00010B5FCF737FC0068BDE8104000F0D2BC2F
:104BC000B2F120030AD5C2F1200301FA02F120FA62
:104BD00003F341EA030100FA02F0704700FA03F11F
:104BE0004FF00000704710B50446FF2801D900209F
:104BF00010BDFBF789FC0068005D10F0980F03D032
:104C0000C10701D140F4806010F4846F01D040F4FA
:104C1000006010F0BA0F01D040F4807010F0BE0FA9
:104C200001D040F40070810604D5010602D440F0A2
:104C3000800001E020F02000C10701D0410601D52D
:104C4000092CD5D140F4805010BD00002DE9F04171
:104C50001F46044603260168072A01F4006004DBAE
:104C600008B116A505E016A503E008B115A500E0FA
:104C700015A521F010002060A069C01EA0610FB131
:104C8000401EA0612046FCF7DCFD4FB1D4E90121B4
:104C900038469047206A401C2062C01C206206E013
:104CA000206AFAE7D4E9012115F8010B9047761E36
:104CB000F8D22046FCF7DBFDBDE8F0814E414E0006
:104CC0006E616E00494E4600696E66002DE9F04146
:104CD00014460D46074601F14C0630463AF062FC98
:104CE000094B7B44224629463846FCF762FE0446BF
:104CF000287B000601D54FF0FF3430463AF086FCA1
:104D00002046BDE8F0810000F95A05002DE9F04188
:104D100014460F46064600F14C0528463AF042FC80
:104D200008487844A0610848784422463946E06142
:104D30003046FDF709FA044628463AF067FC20465B
:104D4000BDE8F0819F5A050033F1FFFF0FB40B005F
:104D500010B54FF000048AB00FA900910E99CC60F5
:104D6000234C7C44234A7A44CDE9064200D00423F4
:104D70006FF00042CDE901321F4A7A446B46089237
:104D80000246002056F071F80AB010BC5DF814FB22
:104D9000F0B507464FF0FF301E4615460C463B4621
:104DA00085B06A460091CDE90101314600200490AA
:104DB00004A8FFF7CBFF04990346601825B109B199
:104DC000024600E022462A6000290ED0002B02DDB8
:104DD0000099814209D03B466A463146001B009447
:104DE000CDE9010404A8FFF7B1FF05B0F0BD000054
:104DF00003D4FFFF1DD4FFFF5B0A04000023036000
:104E0000FFF7C6BF2DE9F04791460E46804604469F
:104E1000002514F8017B2FB1FBF776FB0068C05D1D
:104E2000C007F6D12B2F02D02D2F1ED0641E4A466C
:104E30003146204600F0D0FD26B13268A24201D1B1
:104E4000C6F800804FF002046A0518D50023D0EBA5
:104E5000030563EB01025D1B934109DB0023D0EBEB
:104E6000030063EB0101BDE8F08745F48065DEE7F0
:104E7000FBF752FB046000204FF00041F3E7021EF5
:104E800071F10002EFDAFBF747FB04604FF0FF30EF
:104E90004108E8E72DE9F05F93460F468046044657
:104EA0000026FBF739FBD0F80090824614F8015B2E
:104EB0002DB1FBF729FB0068405DC007F6D12B2D13
:104EC00002D02D2D1FD0641E0021CAF800105A46B2
:104ED0003946204600F080FD024627B13868A042DE
:104EE00001D1C7F80080DAF8000002280ED0CAF815
:104EF000009070050AD500200346D2EB000063EB5A
:104F00000101BDE8F09F46F48066DDE71046F8E752
:104F10002DE9F047814616468AB0354878440DC8D9
:104F20008DE80D0032487844801C03AC0DC884E83D
:104F30000D0041F69B300844372190FBF1F290FBC5
:104F4000F1F5A5F1800501FB12041B3C02D564427A
:104F5000012000E00020DFF898A080460027FA44F6
:104F6000AAF1BE0A0EE0E0070AD03246684607EB17
:104F7000470101230AEB810155F066F98DE807002E
:104F800064107F1C002CEED1194F7F44AE3F19E016
:104F9000E80715D007EB04100DF1180A90E80E0091
:104FA0008AE80E00C068F04201D198190890324694
:104FB000012306A903A855F047F903AB83E80700CE
:104FC0006D10641C002DE3D14FF001033246694699
:104FD000B8F1000F03A802D055F00CF901E055F02C
:104FE00033F9C9E90001C9F808200AB0BDE8F08723
:104FF000247705002DE9F047044617460D4602F1D7
:105000004C0081463AF0CEFA012D26464FF00008BA
:1050100016D01ADB384655F0D5FB411C13D0C0B270
:105020000A2804F8010B02D06D1E012DF2DC84F871
:105030000080344648463AF0E9FA2046BDE8F08759
:1050400084F80080F6E7B44201D10024F2E7387B0F
:105050000006ECD50026EAE72DE9FF4F07461C467F
:105060008B4681B003F14C0000903AF09BFABBF103
:10507000000F06D003992668002528460BFB01F98E
:105080005EE0002476E0002E5CDCE06948453FDA13
:10509000BAF1000F3CD0207B800601D5A06A04E065
:1050A000A169606808442169401A2246A9EB0501FC
:1050B00080463846FEF7F6FE002812DD8044A8F14F
:1050C00001010744A161226917F8011C002605446B
:1050D00011702169491CE1626160E16841F40031AD
:1050E000E160411C03D010B1207B40063ED5204634
:1050F000FEF7F3FEC4F8188020696060E062E068A3
:10510000266020F40030E060E0694042A06013E0D7
:10511000484501DA012100E000212046FEF7F1FEBA
:10512000411C08D0811C0AD02668002807DB6D1CB2
:1051300007F8010B1AE02660B5FBFBF41AE001202A
:10514000824613E0A9EB0500B046B04200DA804683
:10515000384642466168FBF786FF6168A6EB0806A1
:10516000474401EB0800C4E9006045444D458ADB33
:105170002660039C00983AF049FA05B02046BDE845
:10518000F08F2DE9FF4F82461C46934681B003F114
:105190004C000299009002FB01F53AF003FAE5B1E8
:1051A000D4F8088057464FF00009B8F1000049DCF8
:1051B000E069A84225D2B9F1000F22D02246294643
:1051C0003846A669FDF79AF948B1C4F80880A06985
:1051D000801B3844A0EB0A0127E0002428E0E068A7
:1051E00010F4C06F01D0002008E022696168891ABC
:1051F000E269511AC003A16001D44842A0605C4634
:1052000016E0A84201D2012200E0002221463878AF
:10521000FEF76DFF411C06D0D4F8088000280EDB95
:105220006D1E7F1C1EE0A7EB0A010298B1FBF0F493
:1052300000983AF0EBF905B02046BDE8F08F4FF04A
:1052400001090FE0A842064600D92E4639463246EB
:105250006068FBF708FF6068AD1BA8EB06083044E8
:1052600037446060002DA0D1C4F80880C7E7000073
:105270002DE9F04707464C3004463AF0C7F9154887
:1052800081463AF08FF920463AF08CF9124C40F200
:10529000022817E094F85000C00710D0BC420ED08E
:1052A00004F14C0528463AF07DF9E66828463AF0C4
:1052B000ADF938EA060002D12046FBF75FFC206D0D
:1052C00020F00104002CE5D148463AF09FF9BDE8F2
:1052D000F08700000C000020002500202DE9F84395
:1052E0009946174680464FF000060C0002D18846CA
:1052F000012717A4B9F1000F25D105210020AFF334
:10530000008081461FE014F8011B4A466846FFF7FB
:1053100036F9761C0546401C0FD0AD1C13D0B8F1F1
:10532000000F03D0BDF80010A8F80010BDF8000071
:10533000002800D03046BDE8F883FBF7EDF80421E3
:1053400001602846F7E77F1EDDD26FF00100F2E72B
:10535000000000007CB50C46054622B9062100205D
:10536000AFF30080024621466846FFF728F904465D
:10537000401C07D025B1224669462846FBF773FE3C
:1053800020467CBDFBF7C8F804210160F8E770B542
:1053900005460C460A2000E06D1CFDF718FB35B1F0
:1053A00028780028F8D102E0641CFDF710FB14B146
:1053B00020780028F8D1BDE870400A20FDF707BB2F
:1053C00010B5014602A0FFF7E2FF012010BD00006A
:1053D00053494752545245443A20526564697265B4
:1053E00063743A2063616E2774206F70656E3A2093
:1053F0000000000010B5012805D0002103A0FFF730
:10540000C6FF012010BD09A1F8E70000534947522B
:10541000544D454D3A204F7574206F662068656184
:1054200070206D656D6F7279000000003A2048654C
:105430006170206D656D6F727920636F7272757027
:105440007465640010B5044900F027FBBDE8104006
:10545000014800F049BB0000A8250020072811D210
:10546000DFE800F00406080E100C0A0006A07047E2
:105470000BA0704714A070471EA0704723A0704770
:105480002CA0704733A070474E6F206572726F7208
:1054900020286572726E6F203D20302900000000C8
:1054A00045444F4D202D2066756E6374696F6E20E4
:1054B000617267756D656E74206F7574206F6620FC
:1054C00072616E67650000004552414E4745202DD0
:1054D0002066756E6374696F6E20726573756C7487
:1054E000206E6F7420726570726573656E74616290
:1054F0006C650000454E4F4D454D202D206F757455
:10550000206F66206D656D6F7279000045494E56BB
:10551000414C202D20696E76616C69642061726750
:10552000756D656E7420746F2066756E6374696F37
:105530006E000000455349474E554D202D20696CA3
:105540006C6567616C207369676E616C206E756D48
:1055500062657200556E6B6E6F776E206572726F4A
:105560007200000010B508303AF02CF810BD10B5EC
:10557000FAF7D2FF006810BD10B50446FAF7CCFF69
:10558000046010BD2DE9FF4F1F464FF03C0987B066
:105590004FF00042DDE9141001F10108DDF858A0D8
:1055A00002EA4050039000200590834605460446D9
:1055B0000490B969461E08988847AAF1010A02902A
:1055C000BAF1000F3BDD02982E2815D01021FDF70F
:1055D0009FFF00282EDB4FF0010B0599014317D0E8
:1055E000B9F1000F0BDB4A46C117FFF7E9FA054393
:1055F0000C43A9F1040905E0012004900BE008B177
:1056000045F0010501200590049820B9361D02E0FF
:10561000049800B1361FB969089808F10108884755
:10562000BBF1000FAAF1010A0290C9D00999C1F893
:105630000080C5E70298702808D0502806D0F96984
:1056400008988847BBF1000F14D04FE0002002906B
:105650000120BBF1000F049009D0B969089808F146
:1056600001088847AAF10109B9F1000F07DCF969BF
:10567000089888476FF001000BB0BDE8F08F2B2829
:1056800004D02D280CD14FF0FF300490B969089850
:1056900008F101088847A9F10109B9F1000FE6DD19
:1056A000411CE4D00A21FDF733FF0028DFDB02991B
:1056B00008F1010801EB810100EB41000290B9699A
:1056C000089888470A21FDF723FF099AA9F10109E3
:1056D000B9F1000FC2F8008001DD0028E7DAF969AE
:1056E000089888470499029800FB016655EA04006F
:1056F00004D004F04041090002D006E0039898E08D
:10570000A40044EA9574AD00B61E04F00041080000
:1057100002D16D196441761E159810F0240F03D044
:105720004FF00B095C4803E04FF028096FF07D0053
:105730008246564507DAAAEB06018944B9F1410FC2
:1057400001DD4FF0410901200021A9F10102FFF71D
:1057500037FA024628400B462140084301D0012178
:1057600000E00021501E029143F1FF31284021400A
:10577000084301D0012000E000200299834651EA4D
:105780000B014FD0002108464FF00000039900F4B0
:10579000400039B100EB80004FF4400100EBD070C5
:1057A00001EA60008015012802DD4FF0FF3000E0C3
:1057B00013D0401C36D0029860B3BBF1000F0CD15F
:1057C0004A4601200021FFF7FBF928402140084309
:1057D00001D0012000E00020E0B101204A46002174
:1057E000FFF7EEF9034640190A4661412D1A8C4134
:1057F00011D3B9F1400F09DD159810F0240F02D034
:10580000AAF1340603E0AAF1170600E0761C002591
:105810004FF0004406E05B1E42F1FF3220EA030530
:1058200021EA0204CAF10100B04206DA1B490398DA
:1058300008430190002000900EE0039AC4F3D321A6
:10584000E80A0A43164940EA44500A433146CDE982
:105850000002684654F0A5FF159810F0240F0BD0F5
:105860001598C00715D13868DDE90012031D3B60AB
:105870000068C0E900120CE002A8694654F088FFF5
:105880001598C00705D13868029A011D3960006873
:1058900002604046F0E6000002FCFFFF0000F07FDF
:1058A0000000F03F2DE9FF4F92461D4685B04FF0B6
:1058B0000041DDE9124BDDE914727F1E01EA4B5015
:1058C000414940F0FF4940EA0108002122F0200050
:1058D0004928049102D04E2828D04CE03BA0012654
:1058E00007C88DE80700A9690698641C88477F1ED1
:1058F000014606D41DF8060018B121F020018142AE
:105900000BD0E96906988847032E34D0082E32D090
:105910006FF0010009B0BDE8F08F761C032E01D0B6
:10592000082EE0D1601CCAF80000DCE7A9690698DF
:10593000641C88477F1E2AD420F02000412826D1ED
:10594000A9690698641C88477F1E20D420F0200097
:105950004E281CD1A9690698641C88477F1E48F40C
:10596000002849F48009CAF8004001D4282806D04C
:10597000E969069888475FEACB7012D022E0A969EE
:105980000698641C88477F1E01D4002803DAE96961
:1059900006988847BCE72928F1D1641CCAF8004062
:1059A000E9E71BF0240F07D028680499031D2B603A
:1059B0000068C0E9001805E02868021D2A60006838
:1059C000C0F800902046A5E70000F07F494E464908
:1059D0004E495459000000002DE9F74F4FF00009DF
:1059E0001546CA46009C14F8010B302801D0ADB111
:1059F00015E014F8010B4FF00109782803D058285E
:105A000001D04DB10BE00DB1102D08D14FF00009C0
:105A100014F8010B102502E0082500E00A250027F4
:105A20004FEAE57B3E46B84616E0A5FB07234FF05C
:105A3000010905FB08000BFB0731030C05FB0616EB
:105A4000D7181FFA80F846F10006381E76F5803028
:105A500000D3CA4614F8010B2946FDF759FD00286A
:105A6000E3DA019838B1B9F1000F01D0641E00E00B
:105A7000009C01980460BAF1000F08D0FAF74CFDC1
:105A800002210160C81E014603B0BDE8F08F310459
:105A900041EA174148EA0740F6E770B50E4604466A
:105AA00001F14C05284639F07DFD04E0314654F003
:105AB00096FE401C09D014F8010B0028F6D10024F2
:105AC000284639F0A3FD204670BD4FF0FF34F7E7BC
:105AD00080B555F051F9F1EE100A4EF63C71CEF258
